{
  "_format": "hh-sol-artifact-1",
  "contractName": "Lock",
  "sourceName": "contracts/Lock.sol",
  "abi": [
    {
      "inputs": [
        {
          "internalType": "address",
          "name": "tokenAddress",
          "type": "address"
        }
      ],
      "stateMutability": "nonpayable",
      "type": "constructor"
    },
    {
      "inputs": [
        {
          "internalType": "uint256",
          "name": "amount",
          "type": "uint256"
        }
      ],
      "name": "lockTokens",
      "outputs": [],
      "stateMutability": "nonpayable",
      "type": "function"
    },
    {
      "inputs": [],
      "name": "lockerCount",
      "outputs": [
        {
          "internalType": "uint256",
          "name": "",
          "type": "uint256"
        }
      ],
      "stateMutability": "view",
      "type": "function"
    },
    {
      "inputs": [
        {
          "internalType": "address",
          "name": "",
          "type": "address"
        }
      ],
      "name": "lockers",
      "outputs": [
        {
          "internalType": "uint256",
          "name": "",
          "type": "uint256"
        }
      ],
      "stateMutability": "view",
      "type": "function"
    },
    {
      "inputs": [],
      "name": "totalLocked",
      "outputs": [
        {
          "internalType": "uint256",
          "name": "",
          "type": "uint256"
        }
      ],
      "stateMutability": "view",
      "type": "function"
    },
    {
      "inputs": [],
      "name": "withdrawTokens",
      "outputs": [],
      "stateMutability": "nonpayable",
      "type": "function"
    }
  ],
  "bytecode": "0x608060405234801561001057600080fd5b50604051610ccb380380610ccb8339818101604052810190610032919061008d565b806000806101000a81548173ffffffffffffffffffffffffffffffffffffffff021916908373ffffffffffffffffffffffffffffffffffffffff160217905550506100ff565b600081519050610087816100e8565b92915050565b60006020828403121561009f57600080fd5b60006100ad84828501610078565b91505092915050565b60006100c1826100c8565b9050919050565b600073ffffffffffffffffffffffffffffffffffffffff82169050919050565b6100f1816100b6565b81146100fc57600080fd5b50565b610bbd8061010e6000396000f3fe608060405234801561001057600080fd5b50600436106100575760003560e01c80632c8e7a211461005c578063568914121461008c5780636e27d889146100aa5780638d8f2adb146100c6578063ccd96eb6146100d0575b600080fd5b6100766004803603810190610071919061068f565b6100ee565b60405161008391906108d8565b60405180910390f35b610094610106565b6040516100a191906108d8565b60405180910390f35b6100c460048036038101906100bf91906106e1565b61010c565b005b6100ce610405565b005b6100d8610635565b6040516100e591906108d8565b60405180910390f35b60036020528060005260406000206000915090505481565b60025481565b8060008111610150576040517f08c379a000000000000000000000000000000000000000000000000000000000815260040161014790610858565b60405180910390fd5b818060008054906101000a900473ffffffffffffffffffffffffffffffffffffffff1673ffffffffffffffffffffffffffffffffffffffff166370a08231336040518263ffffffff1660e01b81526004016101ab91906107dd565b60206040518083038186803b1580156101c357600080fd5b505afa1580156101d7573d6000803e3d6000fd5b505050506040513d601f19601f820116820180604052508101906101fb919061070a565b101561023c576040517f08c379a000000000000000000000000000000000000000000000000000000000815260040161023390610898565b60405180910390fd5b6000600360003373ffffffffffffffffffffffffffffffffffffffff1673ffffffffffffffffffffffffffffffffffffffff168152602001908152602001600020541161029c576001600081548092919061029690610a00565b91905055505b82600260008282546102ae9190610904565b9250508190555082600360003373ffffffffffffffffffffffffffffffffffffffff1673ffffffffffffffffffffffffffffffffffffffff16815260200190815260200160002060008282546103049190610904565b9250508190555060008060009054906101000a900473ffffffffffffffffffffffffffffffffffffffff1673ffffffffffffffffffffffffffffffffffffffff166323b872dd3330876040518463ffffffff1660e01b815260040161036b939291906107f8565b602060405180830381600087803b15801561038557600080fd5b505af1158015610399573d6000803e3d6000fd5b505050506040513d601f19601f820116820180604052508101906103bd91906106b8565b9050806103ff576040517f08c379a00000000000000000000000000000000000000000000000000000000081526004016103f6906108b8565b60405180910390fd5b50505050565b6000600360003373ffffffffffffffffffffffffffffffffffffffff1673ffffffffffffffffffffffffffffffffffffffff1681526020019081526020016000205411610487576040517f08c379a000000000000000000000000000000000000000000000000000000000815260040161047e90610878565b60405180910390fd5b6000600360003373ffffffffffffffffffffffffffffffffffffffff1673ffffffffffffffffffffffffffffffffffffffff168152602001908152602001600020549050600360003373ffffffffffffffffffffffffffffffffffffffff1673ffffffffffffffffffffffffffffffffffffffff168152602001908152602001600020600090558060026000828254610520919061095a565b925050819055506001600081548092919061053a906109d6565b919050555060008060009054906101000a900473ffffffffffffffffffffffffffffffffffffffff1673ffffffffffffffffffffffffffffffffffffffff1663a9059cbb33846040518363ffffffff1660e01b815260040161059d92919061082f565b602060405180830381600087803b1580156105b757600080fd5b505af11580156105cb573d6000803e3d6000fd5b505050506040513d601f19601f820116820180604052508101906105ef91906106b8565b905080610631576040517f08c379a0000000000000000000000000000000000000000000000000000000008152600401610628906108b8565b60405180910390fd5b5050565b60015481565b60008135905061064a81610b42565b92915050565b60008151905061065f81610b59565b92915050565b60008135905061067481610b70565b92915050565b60008151905061068981610b70565b92915050565b6000602082840312156106a157600080fd5b60006106af8482850161063b565b91505092915050565b6000602082840312156106ca57600080fd5b60006106d884828501610650565b91505092915050565b6000602082840312156106f357600080fd5b600061070184828501610665565b91505092915050565b60006020828403121561071c57600080fd5b600061072a8482850161067a565b91505092915050565b61073c8161098e565b82525050565b600061074f6028836108f3565b915061075a82610a78565b604082019050919050565b60006107726010836108f3565b915061077d82610ac7565b602082019050919050565b60006107956013836108f3565b91506107a082610af0565b602082019050919050565b60006107b8600f836108f3565b91506107c382610b19565b602082019050919050565b6107d7816109cc565b82525050565b60006020820190506107f26000830184610733565b92915050565b600060608201905061080d6000830186610733565b61081a6020830185610733565b61082760408301846107ce565b949350505050565b60006040820190506108446000830185610733565b61085160208301846107ce565b9392505050565b6000602082019050818103600083015261087181610742565b9050919050565b6000602082019050818103600083015261089181610765565b9050919050565b600060208201905081810360008301526108b181610788565b9050919050565b600060208201905081810360008301526108d1816107ab565b9050919050565b60006020820190506108ed60008301846107ce565b92915050565b600082825260208201905092915050565b600061090f826109cc565b915061091a836109cc565b9250827fffffffffffffffffffffffffffffffffffffffffffffffffffffffffffffffff0382111561094f5761094e610a49565b5b828201905092915050565b6000610965826109cc565b9150610970836109cc565b92508282101561098357610982610a49565b5b828203905092915050565b6000610999826109ac565b9050919050565b60008115159050919050565b600073ffffffffffffffffffffffffffffffffffffffff82169050919050565b6000819050919050565b60006109e1826109cc565b915060008214156109f5576109f4610a49565b5b600182039050919050565b6000610a0b826109cc565b91507fffffffffffffffffffffffffffffffffffffffffffffffffffffffffffffffff821415610a3e57610a3d610a49565b5b600182019050919050565b7f4e487b7100000000000000000000000000000000000000000000000000000000600052601160045260246000fd5b7f546f6b656e2062616c616e636573206d7573742062652062696767657220746860008201527f616e207a65726f2e000000000000000000000000000000000000000000000000602082015250565b7f4e6f7420656e6f75676820746f6b656e00000000000000000000000000000000600082015250565b7f496e737566666963656e742062616c616e636500000000000000000000000000600082015250565b7f5472616e73666572204661696c65640000000000000000000000000000000000600082015250565b610b4b8161098e565b8114610b5657600080fd5b50565b610b62816109a0565b8114610b6d57600080fd5b50565b610b79816109cc565b8114610b8457600080fd5b5056fea264697066735822122081d8f81b829ec831488080573ab997df2a116fff976812a2bf3dfcef654aa29a64736f6c63430008020033",
  "linkReferences": {},
  "deployedLinkReferences": {}
}